{
  "contractName": "ZombieFeeding",
  "abi": [
    {
      "anonymous": false,
      "inputs": [
        {
          "indexed": false,
          "internalType": "uint256",
          "name": "zombieId",
          "type": "uint256"
        },
        {
          "indexed": false,
          "internalType": "string",
          "name": "name",
          "type": "string"
        },
        {
          "indexed": false,
          "internalType": "uint256",
          "name": "dna",
          "type": "uint256"
        }
      ],
      "name": "NewZombie",
      "type": "event"
    },
    {
      "anonymous": false,
      "inputs": [
        {
          "indexed": true,
          "internalType": "address",
          "name": "previousOwner",
          "type": "address"
        },
        {
          "indexed": true,
          "internalType": "address",
          "name": "newOwner",
          "type": "address"
        }
      ],
      "name": "OwnershipTransferred",
      "type": "event"
    },
    {
      "inputs": [
        {
          "internalType": "string",
          "name": "_name",
          "type": "string"
        }
      ],
      "name": "createRandomZombie",
      "outputs": [],
      "stateMutability": "nonpayable",
      "type": "function"
    },
    {
      "inputs": [],
      "name": "isOwner",
      "outputs": [
        {
          "internalType": "bool",
          "name": "",
          "type": "bool"
        }
      ],
      "stateMutability": "view",
      "type": "function"
    },
    {
      "inputs": [],
      "name": "owner",
      "outputs": [
        {
          "internalType": "address",
          "name": "",
          "type": "address"
        }
      ],
      "stateMutability": "view",
      "type": "function"
    },
    {
      "inputs": [],
      "name": "renounceOwnership",
      "outputs": [],
      "stateMutability": "nonpayable",
      "type": "function"
    },
    {
      "inputs": [
        {
          "internalType": "address",
          "name": "newOwner",
          "type": "address"
        }
      ],
      "name": "transferOwnership",
      "outputs": [],
      "stateMutability": "nonpayable",
      "type": "function"
    },
    {
      "inputs": [
        {
          "internalType": "uint256",
          "name": "",
          "type": "uint256"
        }
      ],
      "name": "zombieToOwner",
      "outputs": [
        {
          "internalType": "address",
          "name": "",
          "type": "address"
        }
      ],
      "stateMutability": "view",
      "type": "function"
    },
    {
      "inputs": [
        {
          "internalType": "uint256",
          "name": "",
          "type": "uint256"
        }
      ],
      "name": "zombies",
      "outputs": [
        {
          "internalType": "string",
          "name": "name",
          "type": "string"
        },
        {
          "internalType": "uint256",
          "name": "dna",
          "type": "uint256"
        },
        {
          "internalType": "uint32",
          "name": "level",
          "type": "uint32"
        },
        {
          "internalType": "uint32",
          "name": "readyTime",
          "type": "uint32"
        }
      ],
      "stateMutability": "view",
      "type": "function"
    },
    {
      "inputs": [
        {
          "internalType": "uint256",
          "name": "_zombieId",
          "type": "uint256"
        },
        {
          "internalType": "uint256",
          "name": "_targetDna",
          "type": "uint256"
        },
        {
          "internalType": "string",
          "name": "_species",
          "type": "string"
        }
      ],
      "name": "feedAndMultiply",
      "outputs": [],
      "stateMutability": "nonpayable",
      "type": "function"
    },
    {
      "inputs": [
        {
          "internalType": "uint256",
          "name": "_zombieId",
          "type": "uint256"
        },
        {
          "internalType": "uint256",
          "name": "_kittyId",
          "type": "uint256"
        }
      ],
      "name": "feedOnKitty",
      "outputs": [],
      "stateMutability": "nonpayable",
      "type": "function"
    }
  ],
  "bytecode": "0x60806040526010600155600154600a6200001a919062000338565b600255620151806003557306012c8cf97bead5deae237070f9587f8e7a266d600760006101000a81548173ffffffffffffffffffffffffffffffffffffffff021916908373ffffffffffffffffffffffffffffffffffffffff160217905550600760009054906101000a900473ffffffffffffffffffffffffffffffffffffffff16600860006101000a81548173ffffffffffffffffffffffffffffffffffffffff021916908373ffffffffffffffffffffffffffffffffffffffff160217905550348015620000e957600080fd5b50336000806101000a81548173ffffffffffffffffffffffffffffffffffffffff021916908373ffffffffffffffffffffffffffffffffffffffff16021790555060008054906101000a900473ffffffffffffffffffffffffffffffffffffffff1673ffffffffffffffffffffffffffffffffffffffff16600073ffffffffffffffffffffffffffffffffffffffff167f8be0079c531659141344cd1fd0a4f28419497f9722a3daafe3b4186f6b6457e060405160405180910390a362000389565b7f4e487b7100000000000000000000000000000000000000000000000000000000600052601160045260246000fd5b60008160011c9050919050565b6000808291508390505b60018511156200023957808604811115620002115762000210620001ab565b5b6001851615620002215780820291505b80810290506200023185620001da565b9450620001f1565b94509492505050565b60008262000254576001905062000327565b8162000264576000905062000327565b81600181146200027d57600281146200028857620002be565b600191505062000327565b60ff8411156200029d576200029c620001ab565b5b8360020a915084821115620002b757620002b6620001ab565b5b5062000327565b5060208310610133831016604e8410600b8410161715620002f85782820a905083811115620002f257620002f1620001ab565b5b62000327565b620003078484846001620001e7565b92509050818404811115620003215762000320620001ab565b5b81810290505b9392505050565b6000819050919050565b600062000345826200032e565b915062000352836200032e565b9250620003817fffffffffffffffffffffffffffffffffffffffffffffffffffffffffffffffff848462000242565b905092915050565b6115d180620003996000396000f3fe608060405234801561001057600080fd5b50600436106100935760003560e01c8063715018a611610066578063715018a6146101335780637bff0a011461013d5780638da5cb5b146101595780638f32d59b14610177578063f2fde38b1461019557610093565b806317a7f4cc146100985780632052465e146100b4578063528b7b8f146100e75780636b0bfc8014610117575b600080fd5b6100b260048036038101906100ad9190610aa2565b6101b1565b005b6100ce60048036038101906100c99190610ae2565b6102cf565b6040516100de9493929190610bcd565b60405180910390f35b61010160048036038101906100fc9190610ae2565b6103b7565b60405161010e9190610c5a565b60405180910390f35b610131600480360381019061012c9190610daa565b6103ea565b005b61013b610569565b005b61015760048036038101906101529190610e19565b610638565b005b6101616106b9565b60405161016e9190610c5a565b60405180910390f35b61017f6106e2565b60405161018c9190610e7d565b60405180910390f35b6101af60048036038101906101aa9190610ec4565b610739565b005b6000600860009054906101000a900473ffffffffffffffffffffffffffffffffffffffff1673ffffffffffffffffffffffffffffffffffffffff1663e98b7f4d836040518263ffffffff1660e01b815260040161020e9190610ef1565b61014060405180830381865afa15801561022c573d6000803e3d6000fd5b505050506040513d601f19601f820116820180604052508101906102509190610f4d565b909192939495969798509091929394959697509091929394959650909192939495509091929394509091929350909192509091509050809150506102ca83826040518060400160405280600581526020017f6b697474790000000000000000000000000000000000000000000000000000008152506103ea565b505050565b600481815481106102df57600080fd5b90600052602060002090600302016000915090508060000180546103029061105b565b80601f016020809104026020016040519081016040528092919081815260200182805461032e9061105b565b801561037b5780601f106103505761010080835404028352916020019161037b565b820191906000526020600020905b81548152906001019060200180831161035e57829003601f168201915b5050505050908060010154908060020160009054906101000a900463ffffffff16908060020160049054906101000a900463ffffffff16905084565b60056020528060005260406000206000915054906101000a900473ffffffffffffffffffffffffffffffffffffffff1681565b6005600084815260200190815260200160002060009054906101000a900473ffffffffffffffffffffffffffffffffffffffff1673ffffffffffffffffffffffffffffffffffffffff163373ffffffffffffffffffffffffffffffffffffffff161461045557600080fd5b60006004848154811061046b5761046a61108c565b5b906000526020600020906003020190506002548361048991906110ea565b92506000600284836001015461049f919061114a565b6104a9919061117e565b90506040516020016104ba90611206565b60405160208183030381529060405280519060200120836040516020016104e1919061124c565b604051602081830303815290604052805190602001200361052357606360648261050b91906110ea565b826105169190611263565b610520919061114a565b90505b6105626040518060400160405280600681526020017f4e6f4e616d65000000000000000000000000000000000000000000000000000081525082610756565b5050505050565b6105716106e2565b61057a57600080fd5b600073ffffffffffffffffffffffffffffffffffffffff1660008054906101000a900473ffffffffffffffffffffffffffffffffffffffff1673ffffffffffffffffffffffffffffffffffffffff167f8be0079c531659141344cd1fd0a4f28419497f9722a3daafe3b4186f6b6457e060405160405180910390a360008060006101000a81548173ffffffffffffffffffffffffffffffffffffffff021916908373ffffffffffffffffffffffffffffffffffffffff160217905550565b6000600660003373ffffffffffffffffffffffffffffffffffffffff1673ffffffffffffffffffffffffffffffffffffffff168152602001908152602001600020541461068457600080fd5b600061068f8261091d565b905060648161069e91906110ea565b816106a99190611263565b90506106b58282610756565b5050565b60008060009054906101000a900473ffffffffffffffffffffffffffffffffffffffff16905090565b60008060009054906101000a900473ffffffffffffffffffffffffffffffffffffffff1673ffffffffffffffffffffffffffffffffffffffff163373ffffffffffffffffffffffffffffffffffffffff1614905090565b6107416106e2565b61074a57600080fd5b61075381610962565b50565b60006004805490509050336005600083815260200190815260200160002060006101000a81548173ffffffffffffffffffffffffffffffffffffffff021916908373ffffffffffffffffffffffffffffffffffffffff160217905550600660003373ffffffffffffffffffffffffffffffffffffffff1673ffffffffffffffffffffffffffffffffffffffff168152602001908152602001600020600081548092919061080290611297565b919050555060046040518060800160405280858152602001848152602001600163ffffffff1681526020016003544261083b919061114a565b63ffffffff1681525090806001815401808255809150506001900390600052602060002090600302016000909190919091506000820151816000019081610882919061148b565b506020820151816001015560408201518160020160006101000a81548163ffffffff021916908363ffffffff16021790555060608201518160020160046101000a81548163ffffffff021916908363ffffffff16021790555050507f88f026aacbbecc90c18411df4b1185fd8d9be2470f1962f192bf84a27d0704b78184846040516109109392919061155d565b60405180910390a1505050565b60008082604051602001610931919061124c565b6040516020818303038152906040528051906020012060001c90506002548161095a91906110ea565b915050919050565b600073ffffffffffffffffffffffffffffffffffffffff168173ffffffffffffffffffffffffffffffffffffffff160361099b57600080fd5b8073ffffffffffffffffffffffffffffffffffffffff1660008054906101000a900473ffffffffffffffffffffffffffffffffffffffff1673ffffffffffffffffffffffffffffffffffffffff167f8be0079c531659141344cd1fd0a4f28419497f9722a3daafe3b4186f6b6457e060405160405180910390a3806000806101000a81548173ffffffffffffffffffffffffffffffffffffffff021916908373ffffffffffffffffffffffffffffffffffffffff16021790555050565b6000604051905090565b600080fd5b600080fd5b6000819050919050565b610a7f81610a6c565b8114610a8a57600080fd5b50565b600081359050610a9c81610a76565b92915050565b60008060408385031215610ab957610ab8610a62565b5b6000610ac785828601610a8d565b9250506020610ad885828601610a8d565b9150509250929050565b600060208284031215610af857610af7610a62565b5b6000610b0684828501610a8d565b91505092915050565b600081519050919050565b600082825260208201905092915050565b60005b83811015610b49578082015181840152602081019050610b2e565b60008484015250505050565b6000601f19601f8301169050919050565b6000610b7182610b0f565b610b7b8185610b1a565b9350610b8b818560208601610b2b565b610b9481610b55565b840191505092915050565b610ba881610a6c565b82525050565b600063ffffffff82169050919050565b610bc781610bae565b82525050565b60006080820190508181036000830152610be78187610b66565b9050610bf66020830186610b9f565b610c036040830185610bbe565b610c106060830184610bbe565b95945050505050565b600073ffffffffffffffffffffffffffffffffffffffff82169050919050565b6000610c4482610c19565b9050919050565b610c5481610c39565b82525050565b6000602082019050610c6f6000830184610c4b565b92915050565b600080fd5b600080fd5b7f4e487b7100000000000000000000000000000000000000000000000000000000600052604160045260246000fd5b610cb782610b55565b810181811067ffffffffffffffff82111715610cd657610cd5610c7f565b5b80604052505050565b6000610ce9610a58565b9050610cf58282610cae565b919050565b600067ffffffffffffffff821115610d1557610d14610c7f565b5b610d1e82610b55565b9050602081019050919050565b82818337600083830152505050565b6000610d4d610d4884610cfa565b610cdf565b905082815260208101848484011115610d6957610d68610c7a565b5b610d74848285610d2b565b509392505050565b600082601f830112610d9157610d90610c75565b5b8135610da1848260208601610d3a565b91505092915050565b600080600060608486031215610dc357610dc2610a62565b5b6000610dd186828701610a8d565b9350506020610de286828701610a8d565b925050604084013567ffffffffffffffff811115610e0357610e02610a67565b5b610e0f86828701610d7c565b9150509250925092565b600060208284031215610e2f57610e2e610a62565b5b600082013567ffffffffffffffff811115610e4d57610e4c610a67565b5b610e5984828501610d7c565b91505092915050565b60008115159050919050565b610e7781610e62565b82525050565b6000602082019050610e926000830184610e6e565b92915050565b610ea181610c39565b8114610eac57600080fd5b50565b600081359050610ebe81610e98565b92915050565b600060208284031215610eda57610ed9610a62565b5b6000610ee884828501610eaf565b91505092915050565b6000602082019050610f066000830184610b9f565b92915050565b610f1581610e62565b8114610f2057600080fd5b50565b600081519050610f3281610f0c565b92915050565b600081519050610f4781610a76565b92915050565b6000806000806000806000806000806101408b8d031215610f7157610f70610a62565b5b6000610f7f8d828e01610f23565b9a50506020610f908d828e01610f23565b9950506040610fa18d828e01610f38565b9850506060610fb28d828e01610f38565b9750506080610fc38d828e01610f38565b96505060a0610fd48d828e01610f38565b95505060c0610fe58d828e01610f38565b94505060e0610ff68d828e01610f38565b9350506101006110088d828e01610f38565b92505061012061101a8d828e01610f38565b9150509295989b9194979a5092959850565b7f4e487b7100000000000000000000000000000000000000000000000000000000600052602260045260246000fd5b6000600282049050600182168061107357607f821691505b6020821081036110865761108561102c565b5b50919050565b7f4e487b7100000000000000000000000000000000000000000000000000000000600052603260045260246000fd5b7f4e487b7100000000000000000000000000000000000000000000000000000000600052601260045260246000fd5b60006110f582610a6c565b915061110083610a6c565b9250826111105761110f6110bb565b5b828206905092915050565b7f4e487b7100000000000000000000000000000000000000000000000000000000600052601160045260246000fd5b600061115582610a6c565b915061116083610a6c565b92508282019050808211156111785761117761111b565b5b92915050565b600061118982610a6c565b915061119483610a6c565b9250826111a4576111a36110bb565b5b828204905092915050565b600081905092915050565b7f6b69747479000000000000000000000000000000000000000000000000000000600082015250565b60006111f06005836111af565b91506111fb826111ba565b600582019050919050565b6000611211826111e3565b9150819050919050565b600061122682610b0f565b61123081856111af565b9350611240818560208601610b2b565b80840191505092915050565b6000611258828461121b565b915081905092915050565b600061126e82610a6c565b915061127983610a6c565b92508282039050818111156112915761129061111b565b5b92915050565b60006112a282610a6c565b91507fffffffffffffffffffffffffffffffffffffffffffffffffffffffffffffffff82036112d4576112d361111b565b5b600182019050919050565b60008190508160005260206000209050919050565b60006020601f8301049050919050565b600082821b905092915050565b6000600883026113417fffffffffffffffffffffffffffffffffffffffffffffffffffffffffffffffff82611304565b61134b8683611304565b95508019841693508086168417925050509392505050565b6000819050919050565b600061138861138361137e84610a6c565b611363565b610a6c565b9050919050565b6000819050919050565b6113a28361136d565b6113b66113ae8261138f565b848454611311565b825550505050565b600090565b6113cb6113be565b6113d6818484611399565b505050565b5b818110156113fa576113ef6000826113c3565b6001810190506113dc565b5050565b601f82111561143f57611410816112df565b611419846112f4565b81016020851015611428578190505b61143c611434856112f4565b8301826113db565b50505b505050565b600082821c905092915050565b600061146260001984600802611444565b1980831691505092915050565b600061147b8383611451565b9150826002028217905092915050565b61149482610b0f565b67ffffffffffffffff8111156114ad576114ac610c7f565b5b6114b7825461105b565b6114c28282856113fe565b600060209050601f8311600181146114f557600084156114e3578287015190505b6114ed858261146f565b865550611555565b601f198416611503866112df565b60005b8281101561152b57848901518255600182019150602085019450602081019050611506565b868310156115485784890151611544601f891682611451565b8355505b6001600288020188555050505b505050505050565b60006060820190506115726000830186610b9f565b81810360208301526115848185610b66565b90506115936040830184610b9f565b94935050505056fea2646970667358221220ffd99c502d84bd902a24ac26ed519979ea134e3b37c9190bcf62734b534a1a7064736f6c63430008130033",
  "immutableReferences": {},
  "source": "// SPDX-License-Identifier: MIT\r\n\r\npragma solidity >=0.8.0 <0.9.0;\r\n\r\nimport \"./zombiefactory.sol\";\r\n\r\nabstract contract KittyInterface {\r\n  address public myAddress;\r\n  constructor(address _address) {\r\n    myAddress = _address;\r\n  }\r\n  function getKitty(uint256 _id) external view virtual returns (\r\n    bool isGestating,\r\n    bool isReady,\r\n    uint256 cooldownIndex,\r\n    uint256 nextActionAt,\r\n    uint256 siringWithId,\r\n    uint256 birthTime,\r\n    uint256 matronId,\r\n    uint256 sireId,\r\n    uint256 generation,\r\n    uint256 genes\r\n  );\r\n}\r\n\r\ncontract ZombieFeeding is ZombieFactory {\r\n  //using KittyInterface for KittyInterface;\r\n  address ckAddress = 0x06012c8cf97BEaD5deAe237070F9587f8E7A266d;\r\n  KittyInterface kittyContract = KittyInterface(ckAddress);\r\n\r\n  // Modify function definition here:\r\n  function feedAndMultiply(uint _zombieId, uint _targetDna, string memory _species) public {\r\n    require(msg.sender == zombieToOwner[_zombieId]);\r\n    Zombie storage myZombie = zombies[_zombieId];\r\n    _targetDna = _targetDna % dnaModulus;\r\n    uint newDna = (myZombie.dna + _targetDna) / 2;\r\n    // Add an if statement here\r\n    if (keccak256(abi.encodePacked(_species)) == keccak256(abi.encodePacked(\"kitty\"))) {\r\n      newDna = newDna - newDna % 100 + 99;\r\n    }\r\n    _createZombie(\"NoName\", newDna);\r\n  }\r\n\r\n  function feedOnKitty(uint _zombieId, uint _kittyId) public {\r\n    uint kittyDna;\r\n    (,,,,,,,,,kittyDna) = kittyContract.getKitty(_kittyId);\r\n    // And modify function call here:\r\n    feedAndMultiply(_zombieId, kittyDna, \"kitty\");\r\n  }\r\n}",
  "sourcePath": "C:\\Users\\Arthur\\CryptoZombie\\contracts\\zombiefeeding.sol",
  "compiler": {
    "name": "solc",
    "version": "0.8.19+commit.7dd6d404.Emscripten.clang"
  },
  "schemaVersion": "3.4.13",
  "updatedAt": "2023-04-17T07:40:47.434Z",
  "devdoc": {
    "kind": "dev",
    "methods": {
      "isOwner()": {
        "returns": {
          "_0": "true if `msg.sender` is the owner of the contract."
        }
      },
      "owner()": {
        "returns": {
          "_0": "the address of the owner."
        }
      },
      "renounceOwnership()": {
        "details": "Allows the current owner to relinquish control of the contract."
      },
      "transferOwnership(address)": {
        "details": "Allows the current owner to transfer control of the contract to a newOwner.",
        "params": {
          "newOwner": "The address to transfer ownership to."
        }
      }
    },
    "version": 1
  },
  "userdoc": {
    "kind": "user",
    "methods": {
      "renounceOwnership()": {
        "notice": "Renouncing to ownership will leave the contract without an owner. It will not be possible to call the functions with the `onlyOwner` modifier anymore."
      }
    },
    "version": 1
  }
}