{
  "contractName": "ZombieAttack",
  "abi": [
    {
      "anonymous": false,
      "inputs": [
        {
          "indexed": false,
          "internalType": "uint256",
          "name": "zombieId",
          "type": "uint256"
        },
        {
          "indexed": false,
          "internalType": "string",
          "name": "name",
          "type": "string"
        },
        {
          "indexed": false,
          "internalType": "uint256",
          "name": "dna",
          "type": "uint256"
        }
      ],
      "name": "NewZombie",
      "type": "event"
    },
    {
      "anonymous": false,
      "inputs": [
        {
          "indexed": true,
          "internalType": "address",
          "name": "previousOwner",
          "type": "address"
        },
        {
          "indexed": true,
          "internalType": "address",
          "name": "newOwner",
          "type": "address"
        }
      ],
      "name": "OwnershipTransferred",
      "type": "event"
    },
    {
      "inputs": [
        {
          "internalType": "uint256",
          "name": "_zombieId",
          "type": "uint256"
        },
        {
          "internalType": "uint256",
          "name": "_newDna",
          "type": "uint256"
        }
      ],
      "name": "changeDna",
      "outputs": [],
      "stateMutability": "nonpayable",
      "type": "function"
    },
    {
      "inputs": [
        {
          "internalType": "uint256",
          "name": "_zombieId",
          "type": "uint256"
        },
        {
          "internalType": "string",
          "name": "_newName",
          "type": "string"
        }
      ],
      "name": "changeName",
      "outputs": [],
      "stateMutability": "nonpayable",
      "type": "function"
    },
    {
      "inputs": [
        {
          "internalType": "string",
          "name": "_name",
          "type": "string"
        }
      ],
      "name": "createRandomZombie",
      "outputs": [],
      "stateMutability": "nonpayable",
      "type": "function"
    },
    {
      "inputs": [
        {
          "internalType": "uint256",
          "name": "_zombieId",
          "type": "uint256"
        },
        {
          "internalType": "uint256",
          "name": "_targetDna",
          "type": "uint256"
        },
        {
          "internalType": "string",
          "name": "_species",
          "type": "string"
        }
      ],
      "name": "feedAndMultiply",
      "outputs": [],
      "stateMutability": "nonpayable",
      "type": "function"
    },
    {
      "inputs": [
        {
          "internalType": "uint256",
          "name": "_zombieId",
          "type": "uint256"
        },
        {
          "internalType": "uint256",
          "name": "_kittyId",
          "type": "uint256"
        }
      ],
      "name": "feedOnKitty",
      "outputs": [],
      "stateMutability": "nonpayable",
      "type": "function"
    },
    {
      "inputs": [
        {
          "internalType": "address",
          "name": "_owner",
          "type": "address"
        }
      ],
      "name": "getZombiesByOwner",
      "outputs": [
        {
          "internalType": "uint256[]",
          "name": "",
          "type": "uint256[]"
        }
      ],
      "stateMutability": "view",
      "type": "function"
    },
    {
      "inputs": [],
      "name": "isOwner",
      "outputs": [
        {
          "internalType": "bool",
          "name": "",
          "type": "bool"
        }
      ],
      "stateMutability": "view",
      "type": "function"
    },
    {
      "inputs": [],
      "name": "owner",
      "outputs": [
        {
          "internalType": "address",
          "name": "",
          "type": "address"
        }
      ],
      "stateMutability": "view",
      "type": "function"
    },
    {
      "inputs": [],
      "name": "renounceOwnership",
      "outputs": [],
      "stateMutability": "nonpayable",
      "type": "function"
    },
    {
      "inputs": [
        {
          "internalType": "address",
          "name": "newOwner",
          "type": "address"
        }
      ],
      "name": "transferOwnership",
      "outputs": [],
      "stateMutability": "nonpayable",
      "type": "function"
    },
    {
      "inputs": [
        {
          "internalType": "uint256",
          "name": "",
          "type": "uint256"
        }
      ],
      "name": "zombieToOwner",
      "outputs": [
        {
          "internalType": "address",
          "name": "",
          "type": "address"
        }
      ],
      "stateMutability": "view",
      "type": "function"
    },
    {
      "inputs": [
        {
          "internalType": "uint256",
          "name": "",
          "type": "uint256"
        }
      ],
      "name": "zombies",
      "outputs": [
        {
          "internalType": "string",
          "name": "name",
          "type": "string"
        },
        {
          "internalType": "uint256",
          "name": "dna",
          "type": "uint256"
        },
        {
          "internalType": "uint32",
          "name": "level",
          "type": "uint32"
        },
        {
          "internalType": "uint32",
          "name": "readyTime",
          "type": "uint32"
        }
      ],
      "stateMutability": "view",
      "type": "function"
    }
  ],
  "bytecode": "0x60806040526010600155600154600a6200001a919062000338565b600255620151806003557306012c8cf97bead5deae237070f9587f8e7a266d600760006101000a81548173ffffffffffffffffffffffffffffffffffffffff021916908373ffffffffffffffffffffffffffffffffffffffff160217905550600760009054906101000a900473ffffffffffffffffffffffffffffffffffffffff16600860006101000a81548173ffffffffffffffffffffffffffffffffffffffff021916908373ffffffffffffffffffffffffffffffffffffffff160217905550348015620000e957600080fd5b50336000806101000a81548173ffffffffffffffffffffffffffffffffffffffff021916908373ffffffffffffffffffffffffffffffffffffffff16021790555060008054906101000a900473ffffffffffffffffffffffffffffffffffffffff1673ffffffffffffffffffffffffffffffffffffffff16600073ffffffffffffffffffffffffffffffffffffffff167f8be0079c531659141344cd1fd0a4f28419497f9722a3daafe3b4186f6b6457e060405160405180910390a362000389565b7f4e487b7100000000000000000000000000000000000000000000000000000000600052601160045260246000fd5b60008160011c9050919050565b6000808291508390505b60018511156200023957808604811115620002115762000210620001ab565b5b6001851615620002215780820291505b80810290506200023185620001da565b9450620001f1565b94509492505050565b60008262000254576001905062000327565b8162000264576000905062000327565b81600181146200027d57600281146200028857620002be565b600191505062000327565b60ff8411156200029d576200029c620001ab565b5b8360020a915084821115620002b757620002b6620001ab565b5b5062000327565b5060208310610133831016604e8410600b8410161715620002f85782820a905083811115620002f257620002f1620001ab565b5b62000327565b620003078484846001620001e7565b92509050818404811115620003215762000320620001ab565b5b81810290505b9392505050565b6000819050919050565b600062000345826200032e565b915062000352836200032e565b9250620003817fffffffffffffffffffffffffffffffffffffffffffffffffffffffffffffffff848462000242565b905092915050565b611b4480620003996000396000f3fe608060405234801561001057600080fd5b50600436106100b45760003560e01c8063715018a611610071578063715018a6146101a05780637bff0a01146101aa5780638da5cb5b146101c65780638f32d59b146101e4578063c39cbef114610202578063f2fde38b1461021e576100b4565b806317a7f4cc146100b95780632052465e146100d55780634412e10414610108578063528b7b8f146101385780635faf2880146101685780636b0bfc8014610184575b600080fd5b6100d360048036038101906100ce9190610d9a565b61023a565b005b6100ef60048036038101906100ea9190610dda565b610358565b6040516100ff9493929190610ec5565b60405180910390f35b610122600480360381019061011d9190610f6f565b610440565b60405161012f919061105a565b60405180910390f35b610152600480360381019061014d9190610dda565b6104d7565b60405161015f919061108b565b60405180910390f35b610182600480360381019061017d9190610d9a565b61050a565b005b61019e600480360381019061019991906111db565b6105f0565b005b6101a861076f565b005b6101c460048036038101906101bf919061124a565b61083e565b005b6101ce6108bf565b6040516101db919061108b565b60405180910390f35b6101ec6108e8565b6040516101f991906112ae565b60405180910390f35b61021c60048036038101906102179190611329565b61093f565b005b61023860048036038101906102339190610f6f565b610a31565b005b6000600860009054906101000a900473ffffffffffffffffffffffffffffffffffffffff1673ffffffffffffffffffffffffffffffffffffffff1663e98b7f4d836040518263ffffffff1660e01b81526004016102979190611389565b61014060405180830381865afa1580156102b5573d6000803e3d6000fd5b505050506040513d601f19601f820116820180604052508101906102d991906113e5565b9091929394959697985090919293949596975090919293949596509091929394955090919293945090919293509091925090915090508091505061035383826040518060400160405280600581526020017f6b697474790000000000000000000000000000000000000000000000000000008152506105f0565b505050565b6004818154811061036857600080fd5b906000526020600020906003020160009150905080600001805461038b906114f3565b80601f01602080910402602001604051908101604052809291908181526020018280546103b7906114f3565b80156104045780601f106103d957610100808354040283529160200191610404565b820191906000526020600020905b8154815290600101906020018083116103e757829003601f168201915b5050505050908060010154908060020160009054906101000a900463ffffffff16908060020160049054906101000a900463ffffffff16905084565b60606000600660008473ffffffffffffffffffffffffffffffffffffffff1673ffffffffffffffffffffffffffffffffffffffff1681526020019081526020016000205467ffffffffffffffff81111561049d5761049c6110b0565b5b6040519080825280602002602001820160405280156104cb5781602001602082028036833780820191505090505b50905080915050919050565b60056020528060005260406000206000915054906101000a900473ffffffffffffffffffffffffffffffffffffffff1681565b601482816004828154811061052257610521611524565b5b906000526020600020906003020160020160009054906101000a900463ffffffff1663ffffffff16101561055557600080fd5b6005600085815260200190815260200160002060009054906101000a900473ffffffffffffffffffffffffffffffffffffffff1673ffffffffffffffffffffffffffffffffffffffff163373ffffffffffffffffffffffffffffffffffffffff16146105c057600080fd5b82600485815481106105d5576105d4611524565b5b90600052602060002090600302016001018190555050505050565b6005600084815260200190815260200160002060009054906101000a900473ffffffffffffffffffffffffffffffffffffffff1673ffffffffffffffffffffffffffffffffffffffff163373ffffffffffffffffffffffffffffffffffffffff161461065b57600080fd5b60006004848154811061067157610670611524565b5b906000526020600020906003020190506002548361068f9190611582565b9250600060028483600101546106a591906115e2565b6106af9190611616565b90506040516020016106c09061169e565b60405160208183030381529060405280519060200120836040516020016106e791906116e4565b60405160208183030381529060405280519060200120036107295760636064826107119190611582565b8261071c91906116fb565b61072691906115e2565b90505b6107686040518060400160405280600681526020017f4e6f4e616d65000000000000000000000000000000000000000000000000000081525082610a4e565b5050505050565b6107776108e8565b61078057600080fd5b600073ffffffffffffffffffffffffffffffffffffffff1660008054906101000a900473ffffffffffffffffffffffffffffffffffffffff1673ffffffffffffffffffffffffffffffffffffffff167f8be0079c531659141344cd1fd0a4f28419497f9722a3daafe3b4186f6b6457e060405160405180910390a360008060006101000a81548173ffffffffffffffffffffffffffffffffffffffff021916908373ffffffffffffffffffffffffffffffffffffffff160217905550565b6000600660003373ffffffffffffffffffffffffffffffffffffffff1673ffffffffffffffffffffffffffffffffffffffff168152602001908152602001600020541461088a57600080fd5b600061089582610c15565b90506064816108a49190611582565b816108af91906116fb565b90506108bb8282610a4e565b5050565b60008060009054906101000a900473ffffffffffffffffffffffffffffffffffffffff16905090565b60008060009054906101000a900473ffffffffffffffffffffffffffffffffffffffff1673ffffffffffffffffffffffffffffffffffffffff163373ffffffffffffffffffffffffffffffffffffffff1614905090565b600283816004828154811061095757610956611524565b5b906000526020600020906003020160020160009054906101000a900463ffffffff1663ffffffff16101561098a57600080fd5b6005600086815260200190815260200160002060009054906101000a900473ffffffffffffffffffffffffffffffffffffffff1673ffffffffffffffffffffffffffffffffffffffff163373ffffffffffffffffffffffffffffffffffffffff16146109f557600080fd5b838360048781548110610a0b57610a0a611524565b5b90600052602060002090600302016000019182610a299291906118e6565b505050505050565b610a396108e8565b610a4257600080fd5b610a4b81610c5a565b50565b60006004805490509050336005600083815260200190815260200160002060006101000a81548173ffffffffffffffffffffffffffffffffffffffff021916908373ffffffffffffffffffffffffffffffffffffffff160217905550600660003373ffffffffffffffffffffffffffffffffffffffff1673ffffffffffffffffffffffffffffffffffffffff1681526020019081526020016000206000815480929190610afa906119b6565b919050555060046040518060800160405280858152602001848152602001600163ffffffff16815260200160035442610b3391906115e2565b63ffffffff1681525090806001815401808255809150506001900390600052602060002090600302016000909190919091506000820151816000019081610b7a91906119fe565b506020820151816001015560408201518160020160006101000a81548163ffffffff021916908363ffffffff16021790555060608201518160020160046101000a81548163ffffffff021916908363ffffffff16021790555050507f88f026aacbbecc90c18411df4b1185fd8d9be2470f1962f192bf84a27d0704b7818484604051610c0893929190611ad0565b60405180910390a1505050565b60008082604051602001610c2991906116e4565b6040516020818303038152906040528051906020012060001c905060025481610c529190611582565b915050919050565b600073ffffffffffffffffffffffffffffffffffffffff168173ffffffffffffffffffffffffffffffffffffffff1603610c9357600080fd5b8073ffffffffffffffffffffffffffffffffffffffff1660008054906101000a900473ffffffffffffffffffffffffffffffffffffffff1673ffffffffffffffffffffffffffffffffffffffff167f8be0079c531659141344cd1fd0a4f28419497f9722a3daafe3b4186f6b6457e060405160405180910390a3806000806101000a81548173ffffffffffffffffffffffffffffffffffffffff021916908373ffffffffffffffffffffffffffffffffffffffff16021790555050565b6000604051905090565b600080fd5b600080fd5b6000819050919050565b610d7781610d64565b8114610d8257600080fd5b50565b600081359050610d9481610d6e565b92915050565b60008060408385031215610db157610db0610d5a565b5b6000610dbf85828601610d85565b9250506020610dd085828601610d85565b9150509250929050565b600060208284031215610df057610def610d5a565b5b6000610dfe84828501610d85565b91505092915050565b600081519050919050565b600082825260208201905092915050565b60005b83811015610e41578082015181840152602081019050610e26565b60008484015250505050565b6000601f19601f8301169050919050565b6000610e6982610e07565b610e738185610e12565b9350610e83818560208601610e23565b610e8c81610e4d565b840191505092915050565b610ea081610d64565b82525050565b600063ffffffff82169050919050565b610ebf81610ea6565b82525050565b60006080820190508181036000830152610edf8187610e5e565b9050610eee6020830186610e97565b610efb6040830185610eb6565b610f086060830184610eb6565b95945050505050565b600073ffffffffffffffffffffffffffffffffffffffff82169050919050565b6000610f3c82610f11565b9050919050565b610f4c81610f31565b8114610f5757600080fd5b50565b600081359050610f6981610f43565b92915050565b600060208284031215610f8557610f84610d5a565b5b6000610f9384828501610f5a565b91505092915050565b600081519050919050565b600082825260208201905092915050565b6000819050602082019050919050565b610fd181610d64565b82525050565b6000610fe38383610fc8565b60208301905092915050565b6000602082019050919050565b600061100782610f9c565b6110118185610fa7565b935061101c83610fb8565b8060005b8381101561104d5781516110348882610fd7565b975061103f83610fef565b925050600181019050611020565b5085935050505092915050565b600060208201905081810360008301526110748184610ffc565b905092915050565b61108581610f31565b82525050565b60006020820190506110a0600083018461107c565b92915050565b600080fd5b600080fd5b7f4e487b7100000000000000000000000000000000000000000000000000000000600052604160045260246000fd5b6110e882610e4d565b810181811067ffffffffffffffff82111715611107576111066110b0565b5b80604052505050565b600061111a610d50565b905061112682826110df565b919050565b600067ffffffffffffffff821115611146576111456110b0565b5b61114f82610e4d565b9050602081019050919050565b82818337600083830152505050565b600061117e6111798461112b565b611110565b90508281526020810184848401111561119a576111996110ab565b5b6111a584828561115c565b509392505050565b600082601f8301126111c2576111c16110a6565b5b81356111d284826020860161116b565b91505092915050565b6000806000606084860312156111f4576111f3610d5a565b5b600061120286828701610d85565b935050602061121386828701610d85565b925050604084013567ffffffffffffffff81111561123457611233610d5f565b5b611240868287016111ad565b9150509250925092565b6000602082840312156112605761125f610d5a565b5b600082013567ffffffffffffffff81111561127e5761127d610d5f565b5b61128a848285016111ad565b91505092915050565b60008115159050919050565b6112a881611293565b82525050565b60006020820190506112c3600083018461129f565b92915050565b600080fd5b600080fd5b60008083601f8401126112e9576112e86110a6565b5b8235905067ffffffffffffffff811115611306576113056112c9565b5b602083019150836001820283011115611322576113216112ce565b5b9250929050565b60008060006040848603121561134257611341610d5a565b5b600061135086828701610d85565b935050602084013567ffffffffffffffff81111561137157611370610d5f565b5b61137d868287016112d3565b92509250509250925092565b600060208201905061139e6000830184610e97565b92915050565b6113ad81611293565b81146113b857600080fd5b50565b6000815190506113ca816113a4565b92915050565b6000815190506113df81610d6e565b92915050565b6000806000806000806000806000806101408b8d03121561140957611408610d5a565b5b60006114178d828e016113bb565b9a505060206114288d828e016113bb565b99505060406114398d828e016113d0565b985050606061144a8d828e016113d0565b975050608061145b8d828e016113d0565b96505060a061146c8d828e016113d0565b95505060c061147d8d828e016113d0565b94505060e061148e8d828e016113d0565b9350506101006114a08d828e016113d0565b9250506101206114b28d828e016113d0565b9150509295989b9194979a5092959850565b7f4e487b7100000000000000000000000000000000000000000000000000000000600052602260045260246000fd5b6000600282049050600182168061150b57607f821691505b60208210810361151e5761151d6114c4565b5b50919050565b7f4e487b7100000000000000000000000000000000000000000000000000000000600052603260045260246000fd5b7f4e487b7100000000000000000000000000000000000000000000000000000000600052601260045260246000fd5b600061158d82610d64565b915061159883610d64565b9250826115a8576115a7611553565b5b828206905092915050565b7f4e487b7100000000000000000000000000000000000000000000000000000000600052601160045260246000fd5b60006115ed82610d64565b91506115f883610d64565b92508282019050808211156116105761160f6115b3565b5b92915050565b600061162182610d64565b915061162c83610d64565b92508261163c5761163b611553565b5b828204905092915050565b600081905092915050565b7f6b69747479000000000000000000000000000000000000000000000000000000600082015250565b6000611688600583611647565b915061169382611652565b600582019050919050565b60006116a98261167b565b9150819050919050565b60006116be82610e07565b6116c88185611647565b93506116d8818560208601610e23565b80840191505092915050565b60006116f082846116b3565b915081905092915050565b600061170682610d64565b915061171183610d64565b9250828203905081811115611729576117286115b3565b5b92915050565b600082905092915050565b60008190508160005260206000209050919050565b60006020601f8301049050919050565b600082821b905092915050565b60006008830261179c7fffffffffffffffffffffffffffffffffffffffffffffffffffffffffffffffff8261175f565b6117a6868361175f565b95508019841693508086168417925050509392505050565b6000819050919050565b60006117e36117de6117d984610d64565b6117be565b610d64565b9050919050565b6000819050919050565b6117fd836117c8565b611811611809826117ea565b84845461176c565b825550505050565b600090565b611826611819565b6118318184846117f4565b505050565b5b818110156118555761184a60008261181e565b600181019050611837565b5050565b601f82111561189a5761186b8161173a565b6118748461174f565b81016020851015611883578190505b61189761188f8561174f565b830182611836565b50505b505050565b600082821c905092915050565b60006118bd6000198460080261189f565b1980831691505092915050565b60006118d683836118ac565b9150826002028217905092915050565b6118f0838361172f565b67ffffffffffffffff811115611909576119086110b0565b5b61191382546114f3565b61191e828285611859565b6000601f83116001811461194d576000841561193b578287013590505b61194585826118ca565b8655506119ad565b601f19841661195b8661173a565b60005b828110156119835784890135825560018201915060208501945060208101905061195e565b868310156119a0578489013561199c601f8916826118ac565b8355505b6001600288020188555050505b50505050505050565b60006119c182610d64565b91507fffffffffffffffffffffffffffffffffffffffffffffffffffffffffffffffff82036119f3576119f26115b3565b5b600182019050919050565b611a0782610e07565b67ffffffffffffffff811115611a2057611a1f6110b0565b5b611a2a82546114f3565b611a35828285611859565b600060209050601f831160018114611a685760008415611a56578287015190505b611a6085826118ca565b865550611ac8565b601f198416611a768661173a565b60005b82811015611a9e57848901518255600182019150602085019450602081019050611a79565b86831015611abb5784890151611ab7601f8916826118ac565b8355505b6001600288020188555050505b505050505050565b6000606082019050611ae56000830186610e97565b8181036020830152611af78185610e5e565b9050611b066040830184610e97565b94935050505056fea2646970667358221220b5dfe479172721f951631552912eb135071c7cbf8a064b56d19b1f4621aaf9b264736f6c63430008130033",
  "immutableReferences": {},
  "source": "// SPDX-License-Identifier: MIT\r\n\r\npragma solidity >=0.8.0 <0.9.0;\r\n\r\nimport \"./zombiehelper.sol\";\r\n\r\ncontract ZombieAttack is ZombieHelper {\r\n}",
  "sourcePath": "C:\\Users\\Arthur\\CryptoZombie\\contracts\\zombieattack.sol",
  "compiler": {
    "name": "solc",
    "version": "0.8.19+commit.7dd6d404.Emscripten.clang"
  },
  "schemaVersion": "3.4.13",
  "updatedAt": "2023-04-17T07:40:47.422Z",
  "devdoc": {
    "kind": "dev",
    "methods": {
      "isOwner()": {
        "returns": {
          "_0": "true if `msg.sender` is the owner of the contract."
        }
      },
      "owner()": {
        "returns": {
          "_0": "the address of the owner."
        }
      },
      "renounceOwnership()": {
        "details": "Allows the current owner to relinquish control of the contract."
      },
      "transferOwnership(address)": {
        "details": "Allows the current owner to transfer control of the contract to a newOwner.",
        "params": {
          "newOwner": "The address to transfer ownership to."
        }
      }
    },
    "version": 1
  },
  "userdoc": {
    "kind": "user",
    "methods": {
      "renounceOwnership()": {
        "notice": "Renouncing to ownership will leave the contract without an owner. It will not be possible to call the functions with the `onlyOwner` modifier anymore."
      }
    },
    "version": 1
  }
}